{
  "contractName": "Frenchie",
  "abi": [
    {
      "inputs": [
        {
          "internalType": "string",
          "name": "name",
          "type": "string"
        },
        {
          "internalType": "string",
          "name": "symbol",
          "type": "string"
        },
        {
          "internalType": "uint8",
          "name": "decimals",
          "type": "uint8"
        },
        {
          "internalType": "uint256",
          "name": "totalSupply",
          "type": "uint256"
        },
        {
          "internalType": "address payable",
          "name": "feeReceiver",
          "type": "address"
        },
        {
          "internalType": "address",
          "name": "tokenOwnerAddress",
          "type": "address"
        }
      ],
      "stateMutability": "payable",
      "type": "constructor"
    },
    {
      "anonymous": false,
      "inputs": [
        {
          "indexed": true,
          "internalType": "address",
          "name": "owner",
          "type": "address"
        },
        {
          "indexed": true,
          "internalType": "address",
          "name": "spender",
          "type": "address"
        },
        {
          "indexed": false,
          "internalType": "uint256",
          "name": "value",
          "type": "uint256"
        }
      ],
      "name": "Approval",
      "type": "event"
    },
    {
      "anonymous": false,
      "inputs": [
        {
          "indexed": true,
          "internalType": "address",
          "name": "from",
          "type": "address"
        },
        {
          "indexed": true,
          "internalType": "address",
          "name": "to",
          "type": "address"
        },
        {
          "indexed": false,
          "internalType": "uint256",
          "name": "value",
          "type": "uint256"
        }
      ],
      "name": "Transfer",
      "type": "event"
    },
    {
      "inputs": [
        {
          "internalType": "address",
          "name": "owner",
          "type": "address"
        },
        {
          "internalType": "address",
          "name": "spender",
          "type": "address"
        }
      ],
      "name": "allowance",
      "outputs": [
        {
          "internalType": "uint256",
          "name": "",
          "type": "uint256"
        }
      ],
      "stateMutability": "view",
      "type": "function"
    },
    {
      "inputs": [
        {
          "internalType": "address",
          "name": "spender",
          "type": "address"
        },
        {
          "internalType": "uint256",
          "name": "value",
          "type": "uint256"
        }
      ],
      "name": "approve",
      "outputs": [
        {
          "internalType": "bool",
          "name": "",
          "type": "bool"
        }
      ],
      "stateMutability": "nonpayable",
      "type": "function"
    },
    {
      "inputs": [
        {
          "internalType": "address",
          "name": "account",
          "type": "address"
        }
      ],
      "name": "balanceOf",
      "outputs": [
        {
          "internalType": "uint256",
          "name": "",
          "type": "uint256"
        }
      ],
      "stateMutability": "view",
      "type": "function"
    },
    {
      "inputs": [
        {
          "internalType": "address",
          "name": "spender",
          "type": "address"
        },
        {
          "internalType": "uint256",
          "name": "subtractedValue",
          "type": "uint256"
        }
      ],
      "name": "decreaseAllowance",
      "outputs": [
        {
          "internalType": "bool",
          "name": "",
          "type": "bool"
        }
      ],
      "stateMutability": "nonpayable",
      "type": "function"
    },
    {
      "inputs": [
        {
          "internalType": "address",
          "name": "spender",
          "type": "address"
        },
        {
          "internalType": "uint256",
          "name": "addedValue",
          "type": "uint256"
        }
      ],
      "name": "increaseAllowance",
      "outputs": [
        {
          "internalType": "bool",
          "name": "",
          "type": "bool"
        }
      ],
      "stateMutability": "nonpayable",
      "type": "function"
    },
    {
      "inputs": [],
      "name": "totalSupply",
      "outputs": [
        {
          "internalType": "uint256",
          "name": "",
          "type": "uint256"
        }
      ],
      "stateMutability": "view",
      "type": "function"
    },
    {
      "inputs": [
        {
          "internalType": "address",
          "name": "recipient",
          "type": "address"
        },
        {
          "internalType": "uint256",
          "name": "amount",
          "type": "uint256"
        }
      ],
      "name": "transfer",
      "outputs": [
        {
          "internalType": "bool",
          "name": "",
          "type": "bool"
        }
      ],
      "stateMutability": "nonpayable",
      "type": "function"
    },
    {
      "inputs": [
        {
          "internalType": "address",
          "name": "sender",
          "type": "address"
        },
        {
          "internalType": "address",
          "name": "recipient",
          "type": "address"
        },
        {
          "internalType": "uint256",
          "name": "amount",
          "type": "uint256"
        }
      ],
      "name": "transferFrom",
      "outputs": [
        {
          "internalType": "bool",
          "name": "",
          "type": "bool"
        }
      ],
      "stateMutability": "nonpayable",
      "type": "function"
    },
    {
      "inputs": [
        {
          "internalType": "uint256",
          "name": "value",
          "type": "uint256"
        }
      ],
      "name": "burn",
      "outputs": [],
      "stateMutability": "nonpayable",
      "type": "function"
    },
    {
      "inputs": [],
      "name": "name",
      "outputs": [
        {
          "internalType": "string",
          "name": "",
          "type": "string"
        }
      ],
      "stateMutability": "view",
      "type": "function"
    },
    {
      "inputs": [],
      "name": "symbol",
      "outputs": [
        {
          "internalType": "string",
          "name": "",
          "type": "string"
        }
      ],
      "stateMutability": "view",
      "type": "function"
    },
    {
      "inputs": [],
      "name": "decimals",
      "outputs": [
        {
          "internalType": "uint8",
          "name": "",
          "type": "uint8"
        }
      ],
      "stateMutability": "view",
      "type": "function"
    }
  ],
  "bytecode": "0x60806040526040516200177d3803806200177d833981810160405260c08110156200002957600080fd5b81019080805160405193929190846401000000008211156200004a57600080fd5b838201915060208201858111156200006157600080fd5b82518660018202830111640100000000821117156200007f57600080fd5b8083526020830192505050908051906020019080838360005b83811015620000b557808201518184015260208101905062000098565b50505050905090810190601f168015620000e35780820380516001836020036101000a031916815260200191505b50604052602001805160405193929190846401000000008211156200010757600080fd5b838201915060208201858111156200011e57600080fd5b82518660018202830111640100000000821117156200013c57600080fd5b8083526020830192505050908051906020019080838360005b838110156200017257808201518184015260208101905062000155565b50505050905090810190601f168015620001a05780820380516001836020036101000a031916815260200191505b50604052602001805190602001909291908051906020019092919080519060200190929190805190602001909291905050508560039080519060200190620001ea929190620004f3565b50846004908051906020019062000203929190620004f3565b5083600560006101000a81548160ff021916908360ff1602179055506200023a81846200028e640100000000026401000000009004565b8173ffffffffffffffffffffffffffffffffffffffff166108fc349081150290604051600060405180830381858888f1935050505015801562000281573d6000803e3d6000fd5b50505050505050620005a2565b600073ffffffffffffffffffffffffffffffffffffffff168273ffffffffffffffffffffffffffffffffffffffff16141562000332576040517f08c379a000000000000000000000000000000000000000000000000000000000815260040180806020018281038252601f8152602001807f45524332303a206d696e7420746f20746865207a65726f20616464726573730081525060200191505060405180910390fd5b62000357816002546200046a6401000000000262000ec0179091906401000000009004565b600281905550620003be816000808573ffffffffffffffffffffffffffffffffffffffff1673ffffffffffffffffffffffffffffffffffffffff168152602001908152602001600020546200046a6401000000000262000ec0179091906401000000009004565b6000808473ffffffffffffffffffffffffffffffffffffffff1673ffffffffffffffffffffffffffffffffffffffff168152602001908152602001600020819055508173ffffffffffffffffffffffffffffffffffffffff16600073ffffffffffffffffffffffffffffffffffffffff167fddf252ad1be2c89b69c2b068fc378daa952ba7f163c4a11628f55a4df523b3ef836040518082815260200191505060405180910390a35050565b600080828401905083811015620004e9576040517f08c379a000000000000000000000000000000000000000000000000000000000815260040180806020018281038252601b8152602001807f536166654d6174683a206164646974696f6e206f766572666c6f77000000000081525060200191505060405180910390fd5b8091505092915050565b828054600181600116156101000203166002900490600052602060002090601f016020900481019282601f106200053657805160ff191683800117855562000567565b8280016001018555821562000567579182015b828111156200056657825182559160200191906001019062000549565b5b5090506200057691906200057a565b5090565b6200059f91905b808211156200059b57600081600090555060010162000581565b5090565b90565b6111cb80620005b26000396000f3fe608060405234801561001057600080fd5b50600436106100d1576000357c01000000000000000000000000000000000000000000000000000000009004806342966c681161008e57806342966c68146102ed57806370a082311461031b57806395d89b4114610373578063a457c2d7146103f6578063a9059cbb1461045c578063dd62ed3e146104c2576100d1565b806306fdde03146100d6578063095ea7b31461015957806318160ddd146101bf57806323b872dd146101dd578063313ce567146102635780633950935114610287575b600080fd5b6100de61053a565b6040518080602001828103825283818151815260200191508051906020019080838360005b8381101561011e578082015181840152602081019050610103565b50505050905090810190601f16801561014b5780820380516001836020036101000a031916815260200191505b509250505060405180910390f35b6101a56004803603604081101561016f57600080fd5b81019080803573ffffffffffffffffffffffffffffffffffffffff169060200190929190803590602001909291905050506105dc565b604051808215151515815260200191505060405180910390f35b6101c76105f3565b6040518082815260200191505060405180910390f35b610249600480360360608110156101f357600080fd5b81019080803573ffffffffffffffffffffffffffffffffffffffff169060200190929190803573ffffffffffffffffffffffffffffffffffffffff169060200190929190803590602001909291905050506105fd565b604051808215151515815260200191505060405180910390f35b61026b6106ae565b604051808260ff1660ff16815260200191505060405180910390f35b6102d36004803603604081101561029d57600080fd5b81019080803573ffffffffffffffffffffffffffffffffffffffff169060200190929190803590602001909291905050506106c5565b604051808215151515815260200191505060405180910390f35b6103196004803603602081101561030357600080fd5b810190808035906020019092919050505061076a565b005b61035d6004803603602081101561033157600080fd5b81019080803573ffffffffffffffffffffffffffffffffffffffff169060200190929190505050610777565b6040518082815260200191505060405180910390f35b61037b6107bf565b6040518080602001828103825283818151815260200191508051906020019080838360005b838110156103bb5780820151818401526020810190506103a0565b50505050905090810190601f1680156103e85780820380516001836020036101000a031916815260200191505b509250505060405180910390f35b6104426004803603604081101561040c57600080fd5b81019080803573ffffffffffffffffffffffffffffffffffffffff16906020019092919080359060200190929190505050610861565b604051808215151515815260200191505060405180910390f35b6104a86004803603604081101561047257600080fd5b81019080803573ffffffffffffffffffffffffffffffffffffffff16906020019092919080359060200190929190505050610906565b604051808215151515815260200191505060405180910390f35b610524600480360360408110156104d857600080fd5b81019080803573ffffffffffffffffffffffffffffffffffffffff169060200190929190803573ffffffffffffffffffffffffffffffffffffffff16906020019092919050505061091d565b6040518082815260200191505060405180910390f35b606060038054600181600116156101000203166002900480601f0160208091040260200160405190810160405280929190818152602001828054600181600116156101000203166002900480156105d25780601f106105a7576101008083540402835291602001916105d2565b820191906000526020600020905b8154815290600101906020018083116105b557829003601f168201915b5050505050905090565b60006105e93384846109a4565b6001905092915050565b6000600254905090565b600061060a848484610b9b565b6106a3843361069e85600160008a73ffffffffffffffffffffffffffffffffffffffff1673ffffffffffffffffffffffffffffffffffffffff16815260200190815260200160002060003373ffffffffffffffffffffffffffffffffffffffff1673ffffffffffffffffffffffffffffffffffffffff16815260200190815260200160002054610e3790919063ffffffff16565b6109a4565b600190509392505050565b6000600560009054906101000a900460ff16905090565b6000610760338461075b85600160003373ffffffffffffffffffffffffffffffffffffffff1673ffffffffffffffffffffffffffffffffffffffff16815260200190815260200160002060008973ffffffffffffffffffffffffffffffffffffffff1673ffffffffffffffffffffffffffffffffffffffff16815260200190815260200160002054610ec090919063ffffffff16565b6109a4565b6001905092915050565b6107743382610f48565b50565b60008060008373ffffffffffffffffffffffffffffffffffffffff1673ffffffffffffffffffffffffffffffffffffffff168152602001908152602001600020549050919050565b606060048054600181600116156101000203166002900480601f0160208091040260200160405190810160405280929190818152602001828054600181600116156101000203166002900480156108575780601f1061082c57610100808354040283529160200191610857565b820191906000526020600020905b81548152906001019060200180831161083a57829003601f168201915b5050505050905090565b60006108fc33846108f785600160003373ffffffffffffffffffffffffffffffffffffffff1673ffffffffffffffffffffffffffffffffffffffff16815260200190815260200160002060008973ffffffffffffffffffffffffffffffffffffffff1673ffffffffffffffffffffffffffffffffffffffff16815260200190815260200160002054610e3790919063ffffffff16565b6109a4565b6001905092915050565b6000610913338484610b9b565b6001905092915050565b6000600160008473ffffffffffffffffffffffffffffffffffffffff1673ffffffffffffffffffffffffffffffffffffffff16815260200190815260200160002060008373ffffffffffffffffffffffffffffffffffffffff1673ffffffffffffffffffffffffffffffffffffffff16815260200190815260200160002054905092915050565b600073ffffffffffffffffffffffffffffffffffffffff168373ffffffffffffffffffffffffffffffffffffffff161415610a2a576040517f08c379a00000000000000000000000000000000000000000000000000000000081526004018080602001828103825260248152602001806111726024913960400191505060405180910390fd5b600073ffffffffffffffffffffffffffffffffffffffff168273ffffffffffffffffffffffffffffffffffffffff161415610ab0576040517f08c379a000000000000000000000000000000000000000000000000000000000815260040180806020018281038252602281526020018061110a6022913960400191505060405180910390fd5b80600160008573ffffffffffffffffffffffffffffffffffffffff1673ffffffffffffffffffffffffffffffffffffffff16815260200190815260200160002060008473ffffffffffffffffffffffffffffffffffffffff1673ffffffffffffffffffffffffffffffffffffffff168152602001908152602001600020819055508173ffffffffffffffffffffffffffffffffffffffff168373ffffffffffffffffffffffffffffffffffffffff167f8c5be1e5ebec7d5bd14f71427d1e84f3dd0314c0f7b2291e5b200ac8c7c3b925836040518082815260200191505060405180910390a3505050565b600073ffffffffffffffffffffffffffffffffffffffff168373ffffffffffffffffffffffffffffffffffffffff161415610c21576040517f08c379a000000000000000000000000000000000000000000000000000000000815260040180806020018281038252602581526020018061114d6025913960400191505060405180910390fd5b600073ffffffffffffffffffffffffffffffffffffffff168273ffffffffffffffffffffffffffffffffffffffff161415610ca7576040517f08c379a00000000000000000000000000000000000000000000000000000000081526004018080602001828103825260238152602001806110e76023913960400191505060405180910390fd5b610cf8816000808673ffffffffffffffffffffffffffffffffffffffff1673ffffffffffffffffffffffffffffffffffffffff16815260200190815260200160002054610e3790919063ffffffff16565b6000808573ffffffffffffffffffffffffffffffffffffffff1673ffffffffffffffffffffffffffffffffffffffff16815260200190815260200160002081905550610d8b816000808573ffffffffffffffffffffffffffffffffffffffff1673ffffffffffffffffffffffffffffffffffffffff16815260200190815260200160002054610ec090919063ffffffff16565b6000808473ffffffffffffffffffffffffffffffffffffffff1673ffffffffffffffffffffffffffffffffffffffff168152602001908152602001600020819055508173ffffffffffffffffffffffffffffffffffffffff168373ffffffffffffffffffffffffffffffffffffffff167fddf252ad1be2c89b69c2b068fc378daa952ba7f163c4a11628f55a4df523b3ef836040518082815260200191505060405180910390a3505050565b600082821115610eaf576040517f08c379a000000000000000000000000000000000000000000000000000000000815260040180806020018281038252601e8152602001807f536166654d6174683a207375627472616374696f6e206f766572666c6f77000081525060200191505060405180910390fd5b600082840390508091505092915050565b600080828401905083811015610f3e576040517f08c379a000000000000000000000000000000000000000000000000000000000815260040180806020018281038252601b8152602001807f536166654d6174683a206164646974696f6e206f766572666c6f77000000000081525060200191505060405180910390fd5b8091505092915050565b600073ffffffffffffffffffffffffffffffffffffffff168273ffffffffffffffffffffffffffffffffffffffff161415610fce576040517f08c379a000000000000000000000000000000000000000000000000000000000815260040180806020018281038252602181526020018061112c6021913960400191505060405180910390fd5b610fe381600254610e3790919063ffffffff16565b60028190555061103a816000808573ffffffffffffffffffffffffffffffffffffffff1673ffffffffffffffffffffffffffffffffffffffff16815260200190815260200160002054610e3790919063ffffffff16565b6000808473ffffffffffffffffffffffffffffffffffffffff1673ffffffffffffffffffffffffffffffffffffffff16815260200190815260200160002081905550600073ffffffffffffffffffffffffffffffffffffffff168273ffffffffffffffffffffffffffffffffffffffff167fddf252ad1be2c89b69c2b068fc378daa952ba7f163c4a11628f55a4df523b3ef836040518082815260200191505060405180910390a3505056fe45524332303a207472616e7366657220746f20746865207a65726f206164647265737345524332303a20617070726f766520746f20746865207a65726f206164647265737345524332303a206275726e2066726f6d20746865207a65726f206164647265737345524332303a207472616e736665722066726f6d20746865207a65726f206164647265737345524332303a20617070726f76652066726f6d20746865207a65726f2061646472657373a2646970667358221220b0cf43d9d78529dc2488bfec53c4c78da97beb40381bab5a25cab704a5cfaaf464736f6c63430006060033",
  "immutableReferences": {},
  "source": "/**\n *Submitted for verification at Etherscan.io on 2021-01-31\n */\n\n// File: contracts\\open-zeppelin-contracts\\token\\ERC20\\IERC20.sol\n\npragma solidity ^0.6.6;\n\n/**\n * @dev Interface of the ERC20 standard as defined in the EIP. Does not include\n * the optional functions; to access them see `ERC20Detailed`.\n */\ninterface IERC20 {\n    /**\n     * @dev Returns the amount of tokens in existence.\n     */\n    function totalSupply() external view returns (uint256);\n\n    /**\n     * @dev Returns the amount of tokens owned by `account`.\n     */\n    function balanceOf(address account) external view returns (uint256);\n\n    /**\n     * @dev Moves `amount` tokens from the caller's account to `recipient`.\n     *\n     * Returns a boolean value indicating whether the operation succeeded.\n     *\n     * Emits a `Transfer` event.\n     */\n    function transfer(address recipient, uint256 amount)\n        external\n        returns (bool);\n\n    /**\n     * @dev Returns the remaining number of tokens that `spender` will be\n     * allowed to spend on behalf of `owner` through `transferFrom`. This is\n     * zero by default.\n     *\n     * This value changes when `approve` or `transferFrom` are called.\n     */\n    function allowance(address owner, address spender)\n        external\n        view\n        returns (uint256);\n\n    /**\n     * @dev Sets `amount` as the allowance of `spender` over the caller's tokens.\n     *\n     * Returns a boolean value indicating whether the operation succeeded.\n     *\n     * > Beware that changing an allowance with this method brings the risk\n     * that someone may use both the old and the new allowance by unfortunate\n     * transaction ordering. One possible solution to mitigate this race\n     * condition is to first reduce the spender's allowance to 0 and set the\n     * desired value afterwards:\n     * https://github.com/ethereum/EIPs/issues/20#issuecomment-263524729\n     *\n     * Emits an `Approval` event.\n     */\n    function approve(address spender, uint256 amount) external returns (bool);\n\n    /**\n     * @dev Moves `amount` tokens from `sender` to `recipient` using the\n     * allowance mechanism. `amount` is then deducted from the caller's\n     * allowance.\n     *\n     * Returns a boolean value indicating whether the operation succeeded.\n     *\n     * Emits a `Transfer` event.\n     */\n    function transferFrom(\n        address sender,\n        address recipient,\n        uint256 amount\n    ) external returns (bool);\n\n    /**\n     * @dev Emitted when `value` tokens are moved from one account (`from`) to\n     * another (`to`).\n     *\n     * Note that `value` may be zero.\n     */\n    event Transfer(address indexed from, address indexed to, uint256 value);\n\n    /**\n     * @dev Emitted when the allowance of a `spender` for an `owner` is set by\n     * a call to `approve`. `value` is the new allowance.\n     */\n    event Approval(\n        address indexed owner,\n        address indexed spender,\n        uint256 value\n    );\n}\n\n// File: contracts\\open-zeppelin-contracts\\math\\SafeMath.sol\n\npragma solidity ^0.6.6;\n\n/**\n * @dev Wrappers over Solidity's arithmetic operations with added overflow\n * checks.\n *\n * Arithmetic operations in Solidity wrap on overflow. This can easily result\n * in bugs, because programmers usually assume that an overflow raises an\n * error, which is the standard behavior in high level programming languages.\n * `SafeMath` restores this intuition by reverting the transaction when an\n * operation overflows.\n *\n * Using this library instead of the unchecked operations eliminates an entire\n * class of bugs, so it's recommended to use it always.\n */\nlibrary SafeMath {\n    /**\n     * @dev Returns the addition of two unsigned integers, reverting on\n     * overflow.\n     *\n     * Counterpart to Solidity's `+` operator.\n     *\n     * Requirements:\n     * - Addition cannot overflow.\n     */\n    function add(uint256 a, uint256 b) internal pure returns (uint256) {\n        uint256 c = a + b;\n        require(c >= a, \"SafeMath: addition overflow\");\n\n        return c;\n    }\n\n    /**\n     * @dev Returns the subtraction of two unsigned integers, reverting on\n     * overflow (when the result is negative).\n     *\n     * Counterpart to Solidity's `-` operator.\n     *\n     * Requirements:\n     * - Subtraction cannot overflow.\n     */\n    function sub(uint256 a, uint256 b) internal pure returns (uint256) {\n        require(b <= a, \"SafeMath: subtraction overflow\");\n        uint256 c = a - b;\n\n        return c;\n    }\n\n    /**\n     * @dev Returns the multiplication of two unsigned integers, reverting on\n     * overflow.\n     *\n     * Counterpart to Solidity's `*` operator.\n     *\n     * Requirements:\n     * - Multiplication cannot overflow.\n     */\n    function mul(uint256 a, uint256 b) internal pure returns (uint256) {\n        // Gas optimization: this is cheaper than requiring 'a' not being zero, but the\n        // benefit is lost if 'b' is also tested.\n        // See: https://github.com/OpenZeppelin/openzeppelin-solidity/pull/522\n        if (a == 0) {\n            return 0;\n        }\n\n        uint256 c = a * b;\n        require(c / a == b, \"SafeMath: multiplication overflow\");\n\n        return c;\n    }\n\n    /**\n     * @dev Returns the integer division of two unsigned integers. Reverts on\n     * division by zero. The result is rounded towards zero.\n     *\n     * Counterpart to Solidity's `/` operator. Note: this function uses a\n     * `revert` opcode (which leaves remaining gas untouched) while Solidity\n     * uses an invalid opcode to revert (consuming all remaining gas).\n     *\n     * Requirements:\n     * - The divisor cannot be zero.\n     */\n    function div(uint256 a, uint256 b) internal pure returns (uint256) {\n        // Solidity only automatically asserts when dividing by 0\n        require(b > 0, \"SafeMath: division by zero\");\n        uint256 c = a / b;\n        // assert(a == b * c + a % b); // There is no case in which this doesn't hold\n\n        return c;\n    }\n\n    /**\n     * @dev Returns the remainder of dividing two unsigned integers. (unsigned integer modulo),\n     * Reverts when dividing by zero.\n     *\n     * Counterpart to Solidity's `%` operator. This function uses a `revert`\n     * opcode (which leaves remaining gas untouched) while Solidity uses an\n     * invalid opcode to revert (consuming all remaining gas).\n     *\n     * Requirements:\n     * - The divisor cannot be zero.\n     */\n    function mod(uint256 a, uint256 b) internal pure returns (uint256) {\n        require(b != 0, \"SafeMath: modulo by zero\");\n        return a % b;\n    }\n}\n\n// File: contracts\\open-zeppelin-contracts\\token\\ERC20\\ERC20.sol\n\npragma solidity ^0.6.6;\n\n/**\n * @dev Implementation of the `IERC20` interface.\n *\n * This implementation is agnostic to the way tokens are created. This means\n * that a supply mechanism has to be added in a derived contract using `_mint`.\n * For a generic mechanism see `ERC20Mintable`.\n *\n * *For a detailed writeup see our guide [How to implement supply\n * mechanisms](https://forum.zeppelin.solutions/t/how-to-implement-erc20-supply-mechanisms/226).*\n *\n * We have followed general OpenZeppelin guidelines: functions revert instead\n * of returning `false` on failure. This behavior is nonetheless conventional\n * and does not conflict with the expectations of ERC20 applications.\n *\n * Additionally, an `Approval` event is emitted on calls to `transferFrom`.\n * This allows applications to reconstruct the allowance for all accounts just\n * by listening to said events. Other implementations of the EIP may not emit\n * these events, as it isn't required by the specification.\n *\n * Finally, the non-standard `decreaseAllowance` and `increaseAllowance`\n * functions have been added to mitigate the well-known issues around setting\n * allowances. See `IERC20.approve`.\n */\ncontract ERC20 is IERC20 {\n    using SafeMath for uint256;\n\n    mapping(address => uint256) private _balances;\n\n    mapping(address => mapping(address => uint256)) private _allowances;\n\n    uint256 private _totalSupply;\n\n    /**\n     * @dev See `IERC20.totalSupply`.\n     */\n    function totalSupply() public view override returns (uint256) {\n        return _totalSupply;\n    }\n\n    /**\n     * @dev See `IERC20.balanceOf`.\n     */\n    function balanceOf(address account) public view override returns (uint256) {\n        return _balances[account];\n    }\n\n    /**\n     * @dev See `IERC20.transfer`.\n     *\n     * Requirements:\n     *\n     * - `recipient` cannot be the zero address.\n     * - the caller must have a balance of at least `amount`.\n     */\n    function transfer(address recipient, uint256 amount)\n        public\n        override\n        returns (bool)\n    {\n        _transfer(msg.sender, recipient, amount);\n        return true;\n    }\n\n    /**\n     * @dev See `IERC20.allowance`.\n     */\n    function allowance(address owner, address spender)\n        public\n        view\n        override\n        returns (uint256)\n    {\n        return _allowances[owner][spender];\n    }\n\n    /**\n     * @dev See `IERC20.approve`.\n     *\n     * Requirements:\n     *\n     * - `spender` cannot be the zero address.\n     */\n    function approve(address spender, uint256 value)\n        public\n        override\n        returns (bool)\n    {\n        _approve(msg.sender, spender, value);\n        return true;\n    }\n\n    /**\n     * @dev See `IERC20.transferFrom`.\n     *\n     * Emits an `Approval` event indicating the updated allowance. This is not\n     * required by the EIP. See the note at the beginning of `ERC20`;\n     *\n     * Requirements:\n     * - `sender` and `recipient` cannot be the zero address.\n     * - `sender` must have a balance of at least `value`.\n     * - the caller must have allowance for `sender`'s tokens of at least\n     * `amount`.\n     */\n    function transferFrom(\n        address sender,\n        address recipient,\n        uint256 amount\n    ) public override returns (bool) {\n        _transfer(sender, recipient, amount);\n        _approve(\n            sender,\n            msg.sender,\n            _allowances[sender][msg.sender].sub(amount)\n        );\n        return true;\n    }\n\n    /**\n     * @dev Atomically increases the allowance granted to `spender` by the caller.\n     *\n     * This is an alternative to `approve` that can be used as a mitigation for\n     * problems described in `IERC20.approve`.\n     *\n     * Emits an `Approval` event indicating the updated allowance.\n     *\n     * Requirements:\n     *\n     * - `spender` cannot be the zero address.\n     */\n    function increaseAllowance(address spender, uint256 addedValue)\n        public\n        returns (bool)\n    {\n        _approve(\n            msg.sender,\n            spender,\n            _allowances[msg.sender][spender].add(addedValue)\n        );\n        return true;\n    }\n\n    /**\n     * @dev Atomically decreases the allowance granted to `spender` by the caller.\n     *\n     * This is an alternative to `approve` that can be used as a mitigation for\n     * problems described in `IERC20.approve`.\n     *\n     * Emits an `Approval` event indicating the updated allowance.\n     *\n     * Requirements:\n     *\n     * - `spender` cannot be the zero address.\n     * - `spender` must have allowance for the caller of at least\n     * `subtractedValue`.\n     */\n    function decreaseAllowance(address spender, uint256 subtractedValue)\n        public\n        returns (bool)\n    {\n        _approve(\n            msg.sender,\n            spender,\n            _allowances[msg.sender][spender].sub(subtractedValue)\n        );\n        return true;\n    }\n\n    /**\n     * @dev Moves tokens `amount` from `sender` to `recipient`.\n     *\n     * This is internal function is equivalent to `transfer`, and can be used to\n     * e.g. implement automatic token fees, slashing mechanisms, etc.\n     *\n     * Emits a `Transfer` event.\n     *\n     * Requirements:\n     *\n     * - `sender` cannot be the zero address.\n     * - `recipient` cannot be the zero address.\n     * - `sender` must have a balance of at least `amount`.\n     */\n    function _transfer(\n        address sender,\n        address recipient,\n        uint256 amount\n    ) internal {\n        require(sender != address(0), \"ERC20: transfer from the zero address\");\n        require(recipient != address(0), \"ERC20: transfer to the zero address\");\n\n        _balances[sender] = _balances[sender].sub(amount);\n        _balances[recipient] = _balances[recipient].add(amount);\n        emit Transfer(sender, recipient, amount);\n    }\n\n    /** @dev Creates `amount` tokens and assigns them to `account`, increasing\n     * the total supply.\n     *\n     * Emits a `Transfer` event with `from` set to the zero address.\n     *\n     * Requirements\n     *\n     * - `to` cannot be the zero address.\n     */\n    function _mint(address account, uint256 amount) internal {\n        require(account != address(0), \"ERC20: mint to the zero address\");\n\n        _totalSupply = _totalSupply.add(amount);\n        _balances[account] = _balances[account].add(amount);\n        emit Transfer(address(0), account, amount);\n    }\n\n    /**\n     * @dev Destroys `amount` tokens from `account`, reducing the\n     * total supply.\n     *\n     * Emits a `Transfer` event with `to` set to the zero address.\n     *\n     * Requirements\n     *\n     * - `account` cannot be the zero address.\n     * - `account` must have at least `amount` tokens.\n     */\n    function _burn(address account, uint256 value) internal {\n        require(account != address(0), \"ERC20: burn from the zero address\");\n\n        _totalSupply = _totalSupply.sub(value);\n        _balances[account] = _balances[account].sub(value);\n        emit Transfer(account, address(0), value);\n    }\n\n    /**\n     * @dev Sets `amount` as the allowance of `spender` over the `owner`s tokens.\n     *\n     * This is internal function is equivalent to `approve`, and can be used to\n     * e.g. set automatic allowances for certain subsystems, etc.\n     *\n     * Emits an `Approval` event.\n     *\n     * Requirements:\n     *\n     * - `owner` cannot be the zero address.\n     * - `spender` cannot be the zero address.\n     */\n    function _approve(\n        address owner,\n        address spender,\n        uint256 value\n    ) internal {\n        require(owner != address(0), \"ERC20: approve from the zero address\");\n        require(spender != address(0), \"ERC20: approve to the zero address\");\n\n        _allowances[owner][spender] = value;\n        emit Approval(owner, spender, value);\n    }\n\n    /**\n     * @dev Destoys `amount` tokens from `account`.`amount` is then deducted\n     * from the caller's allowance.\n     *\n     * See `_burn` and `_approve`.\n     */\n    function _burnFrom(address account, uint256 amount) internal {\n        _burn(account, amount);\n        _approve(\n            account,\n            msg.sender,\n            _allowances[account][msg.sender].sub(amount)\n        );\n    }\n}\n\n// File: contracts\\ERC20\\AKITAToken.sol\n\npragma solidity ^0.6.6;\n\n/**\n * @title French Bulldog Token\n * @author Spiry & Spike\n * Dedication to SPIKE the Frenchie!\n * @dev Standard ERC20 token with burning and optional functions implemented.\n * For full specification of ERC-20 standard see:\n * https://github.com/ethereum/EIPs/blob/master/EIPS/eip-20.md\n */\ncontract Frenchie is ERC20 {\n    string private _name;\n    string private _symbol;\n    uint8 private _decimals;\n\n    /**\n     * @dev Constructor.\n     * @param name name of the token\n     * @param symbol symbol of the token, 3-4 chars is recommended\n     * @param decimals number of decimal places of one token unit, 18 is widely used\n     * @param totalSupply total supply of tokens in lowest units (depending on decimals)\n     * @param tokenOwnerAddress address that gets 100% of token supply\n     */\n    constructor(\n        string memory name,\n        string memory symbol,\n        uint8 decimals,\n        uint256 totalSupply,\n        address payable feeReceiver,\n        address tokenOwnerAddress\n    ) public payable {\n        _name = name;\n        _symbol = symbol;\n        _decimals = decimals;\n\n        // set tokenOwnerAddress as owner of all tokens\n        _mint(tokenOwnerAddress, totalSupply);\n\n        // pay the service fee for contract deployment\n        feeReceiver.transfer(msg.value);\n    }\n\n    /**\n     * @dev Burns a specific amount of tokens.\n     * @param value The amount of lowest token units to be burned.\n     */\n    function burn(uint256 value) public {\n        _burn(msg.sender, value);\n    }\n\n    // optional functions from ERC20 stardard\n\n    /**\n     * @return the name of the token.\n     */\n    function name() public view returns (string memory) {\n        return _name;\n    }\n\n    /**\n     * @return the symbol of the token.\n     */\n    function symbol() public view returns (string memory) {\n        return _symbol;\n    }\n\n    /**\n     * @return the number of decimals of the token.\n     */\n    function decimals() public view returns (uint8) {\n        return _decimals;\n    }\n}\n",
  "sourcePath": "/home/devdavi/www/spiry/frenchie-contracts/contracts/frenchie.sol",
  "compiler": {
    "name": "solc",
    "version": "0.6.6+commit.6c089d02.Linux.g++"
  },
  "schemaVersion": "3.4.0",
  "updatedAt": "2021-04-28T02:08:08.341Z",
  "devdoc": {
    "author": "Spiry & Spike Dedication to SPIKE the Frenchie!",
    "details": "Standard ERC20 token with burning and optional functions implemented. For full specification of ERC-20 standard see: https://github.com/ethereum/EIPs/blob/master/EIPS/eip-20.md",
    "methods": {
      "allowance(address,address)": {
        "details": "See `IERC20.allowance`."
      },
      "approve(address,uint256)": {
        "details": "See `IERC20.approve`.     * Requirements:     * - `spender` cannot be the zero address."
      },
      "balanceOf(address)": {
        "details": "See `IERC20.balanceOf`."
      },
      "burn(uint256)": {
        "details": "Burns a specific amount of tokens.",
        "params": {
          "value": "The amount of lowest token units to be burned."
        }
      },
      "constructor": {
        "details": "Constructor.",
        "params": {
          "decimals": "number of decimal places of one token unit, 18 is widely used",
          "name": "name of the token",
          "symbol": "symbol of the token, 3-4 chars is recommended",
          "tokenOwnerAddress": "address that gets 100% of token supply",
          "totalSupply": "total supply of tokens in lowest units (depending on decimals)"
        }
      },
      "decreaseAllowance(address,uint256)": {
        "details": "Atomically decreases the allowance granted to `spender` by the caller.     * This is an alternative to `approve` that can be used as a mitigation for problems described in `IERC20.approve`.     * Emits an `Approval` event indicating the updated allowance.     * Requirements:     * - `spender` cannot be the zero address. - `spender` must have allowance for the caller of at least `subtractedValue`."
      },
      "increaseAllowance(address,uint256)": {
        "details": "Atomically increases the allowance granted to `spender` by the caller.     * This is an alternative to `approve` that can be used as a mitigation for problems described in `IERC20.approve`.     * Emits an `Approval` event indicating the updated allowance.     * Requirements:     * - `spender` cannot be the zero address."
      },
      "totalSupply()": {
        "details": "See `IERC20.totalSupply`."
      },
      "transfer(address,uint256)": {
        "details": "See `IERC20.transfer`.     * Requirements:     * - `recipient` cannot be the zero address. - the caller must have a balance of at least `amount`."
      },
      "transferFrom(address,address,uint256)": {
        "details": "See `IERC20.transferFrom`.     * Emits an `Approval` event indicating the updated allowance. This is not required by the EIP. See the note at the beginning of `ERC20`;     * Requirements: - `sender` and `recipient` cannot be the zero address. - `sender` must have a balance of at least `value`. - the caller must have allowance for `sender`'s tokens of at least `amount`."
      }
    },
    "title": "French Bulldog Token"
  },
  "userdoc": {
    "methods": {}
  }
}